{
  "contractName": "Track",
  "abi": [
    {
      "constant": true,
      "inputs": [
        {
          "name": "",
          "type": "address"
        }
      ],
      "name": "nodes",
      "outputs": [
        {
          "name": "host",
          "type": "string"
        },
        {
          "name": "latitude",
          "type": "uint256"
        },
        {
          "name": "longitude",
          "type": "uint256"
        },
        {
          "name": "gasPrice",
          "type": "uint256"
        },
        {
          "name": "votes",
          "type": "uint256"
        },
        {
          "name": "online",
          "type": "bool"
        }
      ],
      "payable": false,
      "stateMutability": "view",
      "type": "function"
    },
    {
      "constant": true,
      "inputs": [
        {
          "name": "",
          "type": "address"
        }
      ],
      "name": "notFriends",
      "outputs": [
        {
          "name": "",
          "type": "address"
        }
      ],
      "payable": false,
      "stateMutability": "view",
      "type": "function"
    },
    {
      "constant": true,
      "inputs": [
        {
          "name": "",
          "type": "uint256"
        }
      ],
      "name": "artists",
      "outputs": [
        {
          "name": "",
          "type": "address"
        }
      ],
      "payable": false,
      "stateMutability": "view",
      "type": "function"
    },
    {
      "constant": true,
      "inputs": [],
      "name": "infoHash",
      "outputs": [
        {
          "name": "",
          "type": "string"
        }
      ],
      "payable": false,
      "stateMutability": "view",
      "type": "function"
    },
    {
      "constant": true,
      "inputs": [
        {
          "name": "",
          "type": "address"
        }
      ],
      "name": "downloadRequests",
      "outputs": [
        {
          "name": "completed",
          "type": "bool"
        },
        {
          "name": "gasPrice",
          "type": "uint256"
        },
        {
          "name": "publicKey",
          "type": "string"
        },
        {
          "name": "clientHost",
          "type": "string"
        },
        {
          "name": "seederAddress",
          "type": "address"
        }
      ],
      "payable": false,
      "stateMutability": "view",
      "type": "function"
    },
    {
      "inputs": [
        {
          "name": "artistAddresses",
          "type": "address[]"
        },
        {
          "name": "_infoHash",
          "type": "string"
        },
        {
          "name": "_price",
          "type": "uint256"
        }
      ],
      "payable": false,
      "stateMutability": "nonpayable",
      "type": "constructor"
    },
    {
      "anonymous": false,
      "inputs": [
        {
          "indexed": false,
          "name": "payer",
          "type": "address"
        },
        {
          "indexed": false,
          "name": "seeder",
          "type": "address"
        }
      ],
      "name": "DownloadRequestCreated",
      "type": "event"
    },
    {
      "constant": false,
      "inputs": [
        {
          "name": "payer",
          "type": "address"
        },
        {
          "name": "hostWallet",
          "type": "address"
        },
        {
          "name": "publicKey",
          "type": "string"
        },
        {
          "name": "clientHost",
          "type": "string"
        }
      ],
      "name": "requestDownload",
      "outputs": [],
      "payable": false,
      "stateMutability": "nonpayable",
      "type": "function"
    },
    {
      "constant": false,
      "inputs": [
        {
          "name": "payer",
          "type": "address"
        },
        {
          "name": "completed",
          "type": "bool"
        },
        {
          "name": "points",
          "type": "uint256"
        }
      ],
      "name": "endDownloadRequest",
      "outputs": [],
      "payable": false,
      "stateMutability": "nonpayable",
      "type": "function"
    },
    {
      "constant": true,
      "inputs": [
        {
          "name": "wallet",
          "type": "address"
        }
      ],
      "name": "isActiveNode",
      "outputs": [
        {
          "name": "isIndeed",
          "type": "bool"
        }
      ],
      "payable": false,
      "stateMutability": "view",
      "type": "function"
    },
    {
      "constant": true,
      "inputs": [
        {
          "name": "wallet",
          "type": "address"
        }
      ],
      "name": "isOnlineNode",
      "outputs": [
        {
          "name": "isIndeed",
          "type": "bool"
        }
      ],
      "payable": false,
      "stateMutability": "view",
      "type": "function"
    },
    {
      "constant": false,
      "inputs": [
        {
          "name": "rewardsWallet",
          "type": "address"
        },
        {
          "name": "host",
          "type": "string"
        },
        {
          "name": "latitude",
          "type": "uint256"
        },
        {
          "name": "longitude",
          "type": "uint256"
        },
        {
          "name": "gasPrice",
          "type": "uint256"
        }
      ],
      "name": "registerNode",
      "outputs": [],
      "payable": false,
      "stateMutability": "nonpayable",
      "type": "function"
    },
    {
      "constant": false,
      "inputs": [
        {
          "name": "rewardsWallet",
          "type": "address"
        }
      ],
      "name": "announceNode",
      "outputs": [],
      "payable": false,
      "stateMutability": "nonpayable",
      "type": "function"
    },
    {
      "constant": false,
      "inputs": [
        {
          "name": "rewardsWallet",
          "type": "address"
        }
      ],
      "name": "denounceNode",
      "outputs": [],
      "payable": false,
      "stateMutability": "nonpayable",
      "type": "function"
    }
  ],
  "bytecode": "0x606060405234156200001057600080fd5b604051620019f5380380620019f58339810160405280805182019190602001805182019190602001805190602001909190505060008060008086511115156200005857600080fd5b60009250600091505b85518210156200014e5785828151811015156200007a57fe5b906020019060200201519050600080548060010182816200009c9190620002da565b9160005260206000209001600083909190916101000a81548173ffffffffffffffffffffffffffffffffffffffff021916908373ffffffffffffffffffffffffffffffffffffffff160217905550503373ffffffffffffffffffffffffffffffffffffffff168173ffffffffffffffffffffffffffffffffffffffff1673ffffffffffffffffffffffffffffffffffffffff1614156200014057600192506200014e565b818060010192505062000061565b8215156200015b57600080fd5b8360028190555084600190805190602001906200017a92919062000309565b5060a0604051908101604052806001151581526020016000815260200160206040519081016040528060008152508152602001602060405190810160405280600081525081526020013373ffffffffffffffffffffffffffffffffffffffff16815250600460003373ffffffffffffffffffffffffffffffffffffffff1673ffffffffffffffffffffffffffffffffffffffff16815260200190815260200160002060008201518160000160006101000a81548160ff0219169083151502179055506020820151816001015560408201518160020190805190602001906200026492919062000390565b5060608201518160030190805190602001906200028392919062000390565b5060808201518160040160006101000a81548173ffffffffffffffffffffffffffffffffffffffff021916908373ffffffffffffffffffffffffffffffffffffffff1602179055509050505050505050506200043f565b815481835581811511620003045781836000526020600020918201910162000303919062000417565b5b505050565b828054600181600116156101000203166002900490600052602060002090601f016020900481019282601f106200034c57805160ff19168380011785556200037d565b828001600101855582156200037d579182015b828111156200037c5782518255916020019190600101906200035f565b5b5090506200038c919062000417565b5090565b828054600181600116156101000203166002900490600052602060002090601f016020900481019282601f10620003d357805160ff191683800117855562000404565b8280016001018555821562000404579182015b8281111562000403578251825591602001919060010190620003e6565b5b50905062000413919062000417565b5090565b6200043c91905b80821115620004385760008160009055506001016200041e565b5090565b90565b6115a6806200044f6000396000f3006060604052600436106100ba576000357c0100000000000000000000000000000000000000000000000000000000900463ffffffff1680630c04e3f2146100bf5780630fecbabb146100f8578063189a5a171461018f5780631d0f22d814610268578063979359f8146102b95780639d104551146102f2578063a193adb71461036b578063ba420def146103bc578063cd7e10c11461049a578063de1366f9146104fd578063ed0b8f611461054a578063f859610a146105d8575b600080fd5b34156100ca57600080fd5b6100f6600480803573ffffffffffffffffffffffffffffffffffffffff1690602001909190505061073b565b005b341561010357600080fd5b61018d600480803573ffffffffffffffffffffffffffffffffffffffff1690602001909190803590602001908201803590602001908080601f016020809104026020016040519081016040528093929190818152602001838380828437820191505050505050919080359060200190919080359060200190919080359060200190919050506107e5565b005b341561019a57600080fd5b6101c6600480803573ffffffffffffffffffffffffffffffffffffffff1690602001909190505061099b565b604051808060200187815260200186815260200185815260200184815260200183151515158152602001828103825288818151815260200191508051906020019080838360005b8381101561022857808201518184015260208101905061020d565b50505050905090810190601f1680156102555780820380516001836020036101000a031916815260200191505b5097505050505050505060405180910390f35b341561027357600080fd5b61029f600480803573ffffffffffffffffffffffffffffffffffffffff16906020019091905050610a7c565b604051808215151515815260200191505060405180910390f35b34156102c457600080fd5b6102f0600480803573ffffffffffffffffffffffffffffffffffffffff16906020019091905050610adf565b005b34156102fd57600080fd5b610329600480803573ffffffffffffffffffffffffffffffffffffffff16906020019091905050610b88565b604051808273ffffffffffffffffffffffffffffffffffffffff1673ffffffffffffffffffffffffffffffffffffffff16815260200191505060405180910390f35b341561037657600080fd5b6103a2600480803573ffffffffffffffffffffffffffffffffffffffff16906020019091905050610bbb565b604051808215151515815260200191505060405180910390f35b34156103c757600080fd5b610498600480803573ffffffffffffffffffffffffffffffffffffffff1690602001909190803573ffffffffffffffffffffffffffffffffffffffff1690602001909190803590602001908201803590602001908080601f0160208091040260200160405190810160405280939291908181526020018383808284378201915050505050509190803590602001908201803590602001908080601f01602080910402602001604051908101604052809392919081815260200183838082843782019150505050505091905050610c14565b005b34156104a557600080fd5b6104bb6004808035906020019091905050610f12565b604051808273ffffffffffffffffffffffffffffffffffffffff1673ffffffffffffffffffffffffffffffffffffffff16815260200191505060405180910390f35b341561050857600080fd5b610548600480803573ffffffffffffffffffffffffffffffffffffffff169060200190919080351515906020019091908035906020019091905050610f51565b005b341561055557600080fd5b61055d6112a4565b6040518080602001828103825283818151815260200191508051906020019080838360005b8381101561059d578082015181840152602081019050610582565b50505050905090810190601f1680156105ca5780820380516001836020036101000a031916815260200191505b509250505060405180910390f35b34156105e357600080fd5b61060f600480803573ffffffffffffffffffffffffffffffffffffffff16906020019091905050611342565b604051808615151515815260200185815260200180602001806020018473ffffffffffffffffffffffffffffffffffffffff1673ffffffffffffffffffffffffffffffffffffffff168152602001838103835286818151815260200191508051906020019080838360005b8381101561069557808201518184015260208101905061067a565b50505050905090810190601f1680156106c25780820380516001836020036101000a031916815260200191505b50838103825285818151815260200191508051906020019080838360005b838110156106fb5780820151818401526020810190506106e0565b50505050905090810190601f1680156107285780820380516001836020036101000a031916815260200191505b5097505050505050505060405180910390f35b8073ffffffffffffffffffffffffffffffffffffffff163373ffffffffffffffffffffffffffffffffffffffff1614151561077557600080fd5b61077e81610a7c565b15151561078757fe5b6001600360008373ffffffffffffffffffffffffffffffffffffffff1673ffffffffffffffffffffffffffffffffffffffff16815260200190815260200160002060050160006101000a81548160ff02191690831515021790555050565b8473ffffffffffffffffffffffffffffffffffffffff163373ffffffffffffffffffffffffffffffffffffffff1614151561081f57600080fd5b600460008673ffffffffffffffffffffffffffffffffffffffff1673ffffffffffffffffffffffffffffffffffffffff16815260200190815260200160002060000160009054906101000a900460ff16151561087a57600080fd5b60c060405190810160405280858152602001848152602001838152602001828152602001600360008873ffffffffffffffffffffffffffffffffffffffff1673ffffffffffffffffffffffffffffffffffffffff16815260200190815260200160002060040154815260200160011515815250600360008773ffffffffffffffffffffffffffffffffffffffff1673ffffffffffffffffffffffffffffffffffffffff16815260200190815260200160002060008201518160000190805190602001906109489291906114d5565b506020820151816001015560408201518160020155606082015181600301556080820151816004015560a08201518160050160006101000a81548160ff0219169083151502179055509050505050505050565b6003602052806000526040600020600091509050806000018054600181600116156101000203166002900480601f016020809104026020016040519081016040528092919081815260200182805460018160011615610100020316600290048015610a475780601f10610a1c57610100808354040283529160200191610a47565b820191906000526020600020905b815481529060010190602001808311610a2a57829003601f168201915b5050505050908060010154908060020154908060030154908060040154908060050160009054906101000a900460ff16905086565b600080600360008473ffffffffffffffffffffffffffffffffffffffff1673ffffffffffffffffffffffffffffffffffffffff16815260200190815260200160002060000180546001816001161561010002031660029004905014159050919050565b8073ffffffffffffffffffffffffffffffffffffffff163373ffffffffffffffffffffffffffffffffffffffff16141515610b1957600080fd5b610b2281610bbb565b1515610b2a57fe5b6000600360008373ffffffffffffffffffffffffffffffffffffffff1673ffffffffffffffffffffffffffffffffffffffff16815260200190815260200160002060050160006101000a81548160ff02191690831515021790555050565b60056020528060005260406000206000915054906101000a900473ffffffffffffffffffffffffffffffffffffffff1681565b6000600360008373ffffffffffffffffffffffffffffffffffffffff1673ffffffffffffffffffffffffffffffffffffffff16815260200190815260200160002060050160009054906101000a900460ff169050919050565b8373ffffffffffffffffffffffffffffffffffffffff163373ffffffffffffffffffffffffffffffffffffffff16141515610c4e57600080fd5b600460008573ffffffffffffffffffffffffffffffffffffffff1673ffffffffffffffffffffffffffffffffffffffff16815260200190815260200160002060000160009054906101000a900460ff161515610ca957600080fd5b600360008473ffffffffffffffffffffffffffffffffffffffff1673ffffffffffffffffffffffffffffffffffffffff16815260200190815260200160002060050160009054906101000a900460ff16151515610d0557600080fd5b60a060405190810160405280600015158152602001600360008673ffffffffffffffffffffffffffffffffffffffff1673ffffffffffffffffffffffffffffffffffffffff1681526020019081526020016000206003015481526020018381526020018281526020018473ffffffffffffffffffffffffffffffffffffffff16815250600460008673ffffffffffffffffffffffffffffffffffffffff1673ffffffffffffffffffffffffffffffffffffffff16815260200190815260200160002060008201518160000160006101000a81548160ff021916908315150217905550602082015181600101556040820151816002019080519060200190610e0d9291906114d5565b506060820151816003019080519060200190610e2a9291906114d5565b5060808201518160040160006101000a81548173ffffffffffffffffffffffffffffffffffffffff021916908373ffffffffffffffffffffffffffffffffffffffff1602179055509050507f6a4943fc88135f73c6a97494d1c09fe625ad064c37821d92372aa21c1f35dd368484604051808373ffffffffffffffffffffffffffffffffffffffff1673ffffffffffffffffffffffffffffffffffffffff1681526020018273ffffffffffffffffffffffffffffffffffffffff1673ffffffffffffffffffffffffffffffffffffffff1681526020019250505060405180910390a150505050565b600081815481101515610f2157fe5b90600052602060002090016000915054906101000a900473ffffffffffffffffffffffffffffffffffffffff1681565b8273ffffffffffffffffffffffffffffffffffffffff163373ffffffffffffffffffffffffffffffffffffffff16141515610f8b57600080fd5b60648111151515610f9857fe5b600460008473ffffffffffffffffffffffffffffffffffffffff1673ffffffffffffffffffffffffffffffffffffffff16815260200190815260200160002060000160009054906101000a900460ff16151515610ff457600080fd5b81600460008573ffffffffffffffffffffffffffffffffffffffff1673ffffffffffffffffffffffffffffffffffffffff16815260200190815260200160002060000160006101000a81548160ff0219169083151502179055508115156111ec578060036000600460008773ffffffffffffffffffffffffffffffffffffffff1673ffffffffffffffffffffffffffffffffffffffff16815260200190815260200160002060040160009054906101000a900473ffffffffffffffffffffffffffffffffffffffff1673ffffffffffffffffffffffffffffffffffffffff1673ffffffffffffffffffffffffffffffffffffffff16815260200190815260200160002060040160008282540392505081905550600460008473ffffffffffffffffffffffffffffffffffffffff1673ffffffffffffffffffffffffffffffffffffffff16815260200190815260200160002060040160009054906101000a900473ffffffffffffffffffffffffffffffffffffffff16600560008573ffffffffffffffffffffffffffffffffffffffff1673ffffffffffffffffffffffffffffffffffffffff16815260200190815260200160002060006101000a81548173ffffffffffffffffffffffffffffffffffffffff021916908373ffffffffffffffffffffffffffffffffffffffff16021790555061129f565b8060036000600460008773ffffffffffffffffffffffffffffffffffffffff1673ffffffffffffffffffffffffffffffffffffffff16815260200190815260200160002060040160009054906101000a900473ffffffffffffffffffffffffffffffffffffffff1673ffffffffffffffffffffffffffffffffffffffff1673ffffffffffffffffffffffffffffffffffffffff168152602001908152602001600020600401600082825401925050819055505b505050565b60018054600181600116156101000203166002900480601f01602080910402602001604051908101604052809291908181526020018280546001816001161561010002031660029004801561133a5780601f1061130f5761010080835404028352916020019161133a565b820191906000526020600020905b81548152906001019060200180831161131d57829003601f168201915b505050505081565b60046020528060005260406000206000915090508060000160009054906101000a900460ff1690806001015490806002018054600181600116156101000203166002900480601f0160208091040260200160405190810160405280929190818152602001828054600181600116156101000203166002900480156114075780601f106113dc57610100808354040283529160200191611407565b820191906000526020600020905b8154815290600101906020018083116113ea57829003601f168201915b505050505090806003018054600181600116156101000203166002900480601f0160208091040260200160405190810160405280929190818152602001828054600181600116156101000203166002900480156114a55780601f1061147a576101008083540402835291602001916114a5565b820191906000526020600020905b81548152906001019060200180831161148857829003601f168201915b5050505050908060040160009054906101000a900473ffffffffffffffffffffffffffffffffffffffff16905085565b828054600181600116156101000203166002900490600052602060002090601f016020900481019282601f1061151657805160ff1916838001178555611544565b82800160010185558215611544579182015b82811115611543578251825591602001919060010190611528565b5b5090506115519190611555565b5090565b61157791905b8082111561157357600081600090555060010161155b565b5090565b905600a165627a7a72305820e876032210a41046e03fc4b94cfc11f18f8dff376f04843f60caf692ed6cf08d0029",
  "source": "pragma solidity ^0.4.19;\n\nimport { Artist } from \"./Artist.sol\";\n\n\n/**\n * Track contract, deployed per track\n */\ncontract Track {\n\n  event DownloadRequestCreated(address payer, address seeder);\n\n  Artist[] public artists;\n  string public infoHash;\n\n  uint price;\n\n  struct Node {\n    string host;\n    uint latitude;\n    uint longitude;\n    uint gasPrice;\n    uint votes;\n    bool online;\n  }\n\n  mapping(address => Node) public nodes;\n\n  struct DownloadRequest {\n    bool completed;\n    uint gasPrice;\n    string publicKey;\n    string clientHost;\n    address seederAddress;\n  }\n\n  mapping(address => DownloadRequest) public downloadRequests;\n  mapping(address => address) public notFriends;\n\n  function Track(address[] artistAddresses, string _infoHash, uint _price) public {\n    require(artistAddresses.length > 0);\n\n    bool artistDeployed = false;\n\n    for (uint i=0; i < artistAddresses.length; i++) {\n      Artist _artist = Artist(artistAddresses[i]);\n\n      artists.push(_artist);\n      if (address(_artist.owner) == msg.sender) {\n        artistDeployed = true;\n        break;\n      }\n    }\n\n    require(artistDeployed);\n\n    price = _price;\n    infoHash = _infoHash;\n\n    // Make sure download request is not needed anymore\n    downloadRequests[msg.sender] = DownloadRequest(true, 0, \"\", \"\", msg.sender);\n  }\n\n  function requestDownload (address payer, address hostWallet, string publicKey, string clientHost) public {\n    require(msg.sender == payer); // Only payer of download\n\n    // check if payer has requested download before\n    if (!downloadRequests[payer].completed) {\n      // Previous download never completed, before requesting new download the request has to be voted upon\n      revert();\n    }\n\n    require(!nodes[hostWallet].online);\n\n    downloadRequests[payer] = DownloadRequest(false, nodes[hostWallet].gasPrice, publicKey, clientHost, hostWallet);\n\n    emit DownloadRequestCreated(payer, hostWallet);\n  }\n\n  function endDownloadRequest (address payer, bool completed, uint points) public {\n    require(msg.sender == payer);\n    assert(points <= 100);\n\n    require(!downloadRequests[payer].completed);\n\n    downloadRequests[payer].completed = completed;\n\n    if (!completed) {\n      nodes[downloadRequests[payer].seederAddress].votes -= points;\n      notFriends[payer] = downloadRequests[payer].seederAddress;\n    }\n    else {\n      nodes[downloadRequests[payer].seederAddress].votes += points;\n    }\n  }\n\n  function isActiveNode(address wallet) public constant returns(bool isIndeed) {\n    return bytes(nodes[wallet].host).length != 0;\n  }\n\n  function isOnlineNode(address wallet) public constant returns(bool isIndeed) {\n    return nodes[wallet].online;\n  }\n\n  function registerNode(address rewardsWallet, string host, uint latitude, uint longitude, uint gasPrice) public {\n    require(msg.sender == rewardsWallet);\n    require(downloadRequests[rewardsWallet].completed);\n\n    // Update node object with new info\n    nodes[rewardsWallet] = Node({\n      host: host,\n      latitude: latitude,\n      longitude: longitude,\n      gasPrice: gasPrice,\n      votes: nodes[rewardsWallet].votes,\n      online: true\n    });\n  }\n\n  function announceNode (address rewardsWallet) public {\n    require(msg.sender == rewardsWallet);\n    assert(!isActiveNode(rewardsWallet)); // Cannot announce Node without host\n\n    nodes[rewardsWallet].online = true;\n  }\n\n  function denounceNode (address rewardsWallet) public {\n    require(msg.sender == rewardsWallet);\n    assert(isOnlineNode(rewardsWallet)); // Cannot denounce node that was offline\n\n    nodes[rewardsWallet].online = false;\n  }\n\n}\n",
  "sourcePath": "/Users/pauloostenrijk/WebProjects/music-share/contracts/Track.sol",
  "compiler": {
    "name": "solc",
    "version": "0.4.21+commit.dfe3193c.Emscripten.clang"
  },
  "schemaVersion": "2.0.0",
  "updatedAt": "2018-04-29T17:33:26.838Z"
}